{
  "contractName": "Client",
  "abi": [
    {
      "constant": true,
      "inputs": [],
      "name": "name",
      "outputs": [
        {
          "name": "",
          "type": "string"
        }
      ],
      "payable": false,
      "stateMutability": "view",
      "type": "function"
    },
    {
      "constant": false,
      "inputs": [
        {
          "name": "value",
          "type": "uint256"
        },
        {
          "name": "startDate",
          "type": "string"
        },
        {
          "name": "endDate",
          "type": "string"
        }
      ],
      "name": "createLoan",
      "outputs": [],
      "payable": false,
      "stateMutability": "nonpayable",
      "type": "function"
    },
    {
      "constant": true,
      "inputs": [],
      "name": "getLoans",
      "outputs": [
        {
          "name": "",
          "type": "address[]"
        }
      ],
      "payable": false,
      "stateMutability": "view",
      "type": "function"
    },
    {
      "constant": true,
      "inputs": [
        {
          "name": "",
          "type": "uint256"
        }
      ],
      "name": "loans",
      "outputs": [
        {
          "name": "",
          "type": "address"
        }
      ],
      "payable": false,
      "stateMutability": "view",
      "type": "function"
    },
    {
      "inputs": [
        {
          "name": "_name",
          "type": "string"
        }
      ],
      "payable": false,
      "stateMutability": "nonpayable",
      "type": "constructor"
    }
  ],
  "bytecode": "0x6060604052341561000f57600080fd5b604051610a57380380610a57833981016040528080518201919050508060009080519060200190610041929190610048565b50506100ed565b828054600181600116156101000203166002900490600052602060002090601f016020900481019282601f1061008957805160ff19168380011785556100b7565b828001600101855582156100b7579182015b828111156100b657825182559160200191906001019061009b565b5b5090506100c491906100c8565b5090565b6100ea91905b808211156100e65760008160009055506001016100ce565b5090565b90565b61095b806100fc6000396000f300606060405260043610610062576000357c0100000000000000000000000000000000000000000000000000000000900463ffffffff16806306fdde03146100675780638f68fe19146100f5578063aa4a87111461019e578063e1ec3c6814610208575b600080fd5b341561007257600080fd5b61007a61026b565b6040518080602001828103825283818151815260200191508051906020019080838360005b838110156100ba57808201518184015260208101905061009f565b50505050905090810190601f1680156100e75780820380516001836020036101000a031916815260200191505b509250505060405180910390f35b341561010057600080fd5b61019c600480803590602001909190803590602001908201803590602001908080601f0160208091040260200160405190810160405280939291908181526020018383808284378201915050505050509190803590602001908201803590602001908080601f01602080910402602001604051908101604052809392919081815260200183838082843782019150505050505091905050610309565b005b34156101a957600080fd5b6101b1610479565b6040518080602001828103825283818151815260200191508051906020019060200280838360005b838110156101f45780820151818401526020810190506101d9565b505050509050019250505060405180910390f35b341561021357600080fd5b610229600480803590602001909190505061050d565b604051808273ffffffffffffffffffffffffffffffffffffffff1673ffffffffffffffffffffffffffffffffffffffff16815260200191505060405180910390f35b60008054600181600116156101000203166002900480601f0160208091040260200160405190810160405280929190818152602001828054600181600116156101000203166002900480156103015780601f106102d657610100808354040283529160200191610301565b820191906000526020600020905b8154815290600101906020018083116102e457829003601f168201915b505050505081565b600083838361031661054c565b808481526020018060200180602001838103835285818151815260200191508051906020019080838360005b8381101561035d578082015181840152602081019050610342565b50505050905090810190601f16801561038a5780820380516001836020036101000a031916815260200191505b50838103825284818151815260200191508051906020019080838360005b838110156103c35780820151818401526020810190506103a8565b50505050905090810190601f1680156103f05780820380516001836020036101000a031916815260200191505b5095505050505050604051809103906000f080151561040e57600080fd5b905060018054806001018281610424919061055c565b9160005260206000209001600083909190916101000a81548173ffffffffffffffffffffffffffffffffffffffff021916908373ffffffffffffffffffffffffffffffffffffffff1602179055505050505050565b610481610588565b600180548060200260200160405190810160405280929190818152602001828054801561050357602002820191906000526020600020905b8160009054906101000a900473ffffffffffffffffffffffffffffffffffffffff1673ffffffffffffffffffffffffffffffffffffffff16815260200190600101908083116104b9575b5050505050905090565b60018181548110151561051c57fe5b90600052602060002090016000915054906101000a900473ffffffffffffffffffffffffffffffffffffffff1681565b60405161036e806105c283390190565b81548183558181151161058357818360005260206000209182019101610582919061059c565b5b505050565b602060405190810160405280600081525090565b6105be91905b808211156105ba5760008160009055506001016105a2565b5090565b9056006060604052341561000f57600080fd5b60405161036e38038061036e833981016040528080519060200190919080518201919060200180518201919050506100456100b5565b606060405190810160405280858152602001848152602001838152509050806000808201518160000155602082015181600101908051906020019061008b9291906100e3565b5060408201518160020190805190602001906100a89291906100e3565b509050505050505061019c565b606060405190810160405280600081526020016100d0610163565b81526020016100dd610163565b81525090565b828054600181600116156101000203166002900490600052602060002090601f016020900481019282601f1061012457805160ff1916838001178555610152565b82800160010185558215610152579182015b82811115610151578251825591602001919060010190610136565b5b50905061015f9190610177565b5090565b602060405190810160405280600081525090565b61019991905b8082111561019557600081600090555060010161017d565b5090565b90565b6101c3806101ab6000396000f300606060405260043610610041576000357c0100000000000000000000000000000000000000000000000000000000900463ffffffff168063798a5a4e14610046575b600080fd5b341561005157600080fd5b610059610181565b6040518084815260200180602001806020018381038352858181546001816001161561010002031660029004815260200191508054600181600116156101000203166002900480156100ec5780601f106100c1576101008083540402835291602001916100ec565b820191906000526020600020905b8154815290600101906020018083116100cf57829003601f168201915b505083810382528481815460018160011615610100020316600290048152602001915080546001816001161561010002031660029004801561016f5780601f106101445761010080835404028352916020019161016f565b820191906000526020600020905b81548152906001019060200180831161015257829003601f168201915b50509550505050505060405180910390f35b60008060000154908060010190806002019050835600a165627a7a7230582081997ed3aca5e719cc99d8db44e88313b450860246ff09016adf79fd46f9da6a0029a165627a7a7230582066e759d0769a67cb6917dd3aa175171198e87f505ce0698efb02fa1c5933e3200029",
  "source": "pragma solidity 0.4.18;\r\n\r\ncontract System {\r\n    address[] public clients;\r\n    \r\n    function createClient(string name) public {\r\n        address newClient = new Client(name);\r\n        clients.push(newClient);\r\n    }\r\n    \r\n    function getClients() public view returns (address[]) {\r\n        return clients;\r\n    }\r\n}\r\n\r\ncontract Client {\r\n    string public name;\r\n    address[] public loans;  \r\n    \r\n    function Client(string _name) public {\r\n        name = _name;\r\n    }\r\n    \r\n    function createLoan(uint value, string startDate, string endDate) public {\r\n        address newLoan = new Loan(value, startDate, endDate);\r\n        loans.push(newLoan);\r\n    }\r\n    \r\n    function getLoans() public view returns (address[]) {\r\n        return loans;\r\n    }\r\n}\r\n\r\ncontract Loan {\r\n    LoanInfo public loanInfo;\r\n    \r\n    function Loan(uint value, string startDate, string endDate) public {\r\n        LoanInfo memory _loanInfo = LoanInfo({\r\n            value: value,\r\n            startDate: startDate,\r\n            endDate: endDate\r\n        });\r\n        \r\n        loanInfo = _loanInfo;\r\n    }\r\n    \r\n    struct LoanInfo {\r\n        uint value;\r\n        string startDate;\r\n        string endDate;\r\n    }\r\n}\r\n\r\n\r\n\r\n\r\n\r\n\r\n\r\n\r\n\r\n",
  "sourcePath": "D:\\pulpit\\KUBA\\praca magisterska\\Ethereum\\app\\contracts\\System.sol",
  "compiler": {
    "name": "solc",
    "version": "0.4.18+commit.9cf6e910.Emscripten.clang"
  },
  "schemaVersion": "1.0.1",
  "updatedAt": "2019-12-23T21:29:38.349Z"
}