{
  "contractName": "Loan",
  "abi": [
    {
      "constant": true,
      "inputs": [],
      "name": "loanInfo",
      "outputs": [
        {
          "name": "value",
          "type": "uint256"
        },
        {
          "name": "startDate",
          "type": "string"
        },
        {
          "name": "endDate",
          "type": "string"
        }
      ],
      "payable": false,
      "stateMutability": "view",
      "type": "function"
    },
    {
      "inputs": [
        {
          "name": "value",
          "type": "uint256"
        },
        {
          "name": "startDate",
          "type": "string"
        },
        {
          "name": "endDate",
          "type": "string"
        }
      ],
      "payable": false,
      "stateMutability": "nonpayable",
      "type": "constructor"
    }
  ],
  "bytecode": "0x6060604052341561000f57600080fd5b60405161036e38038061036e833981016040528080519060200190919080518201919060200180518201919050506100456100b5565b606060405190810160405280858152602001848152602001838152509050806000808201518160000155602082015181600101908051906020019061008b9291906100e3565b5060408201518160020190805190602001906100a89291906100e3565b509050505050505061019c565b606060405190810160405280600081526020016100d0610163565b81526020016100dd610163565b81525090565b828054600181600116156101000203166002900490600052602060002090601f016020900481019282601f1061012457805160ff1916838001178555610152565b82800160010185558215610152579182015b82811115610151578251825591602001919060010190610136565b5b50905061015f9190610177565b5090565b602060405190810160405280600081525090565b61019991905b8082111561019557600081600090555060010161017d565b5090565b90565b6101c3806101ab6000396000f300606060405260043610610041576000357c0100000000000000000000000000000000000000000000000000000000900463ffffffff168063798a5a4e14610046575b600080fd5b341561005157600080fd5b610059610181565b6040518084815260200180602001806020018381038352858181546001816001161561010002031660029004815260200191508054600181600116156101000203166002900480156100ec5780601f106100c1576101008083540402835291602001916100ec565b820191906000526020600020905b8154815290600101906020018083116100cf57829003601f168201915b505083810382528481815460018160011615610100020316600290048152602001915080546001816001161561010002031660029004801561016f5780601f106101445761010080835404028352916020019161016f565b820191906000526020600020905b81548152906001019060200180831161015257829003601f168201915b50509550505050505060405180910390f35b60008060000154908060010190806002019050835600a165627a7a7230582081997ed3aca5e719cc99d8db44e88313b450860246ff09016adf79fd46f9da6a0029",
  "source": "pragma solidity 0.4.18;\r\n\r\ncontract System {\r\n    address[] public clients;\r\n    \r\n    function createClient(string name) public {\r\n        address newClient = new Client(name);\r\n        clients.push(newClient);\r\n    }\r\n    \r\n    function getClients() public view returns (address[]) {\r\n        return clients;\r\n    }\r\n}\r\n\r\ncontract Client {\r\n    string public name;\r\n    address[] public loans;  \r\n    \r\n    function Client(string _name) public {\r\n        name = _name;\r\n    }\r\n    \r\n    function createLoan(uint value, string startDate, string endDate) public {\r\n        address newLoan = new Loan(value, startDate, endDate);\r\n        loans.push(newLoan);\r\n    }\r\n    \r\n    function getLoans() public view returns (address[]) {\r\n        return loans;\r\n    }\r\n}\r\n\r\ncontract Loan {\r\n    LoanInfo public loanInfo;\r\n    \r\n    function Loan(uint value, string startDate, string endDate) public {\r\n        LoanInfo memory _loanInfo = LoanInfo({\r\n            value: value,\r\n            startDate: startDate,\r\n            endDate: endDate\r\n        });\r\n        \r\n        loanInfo = _loanInfo;\r\n    }\r\n    \r\n    struct LoanInfo {\r\n        uint value;\r\n        string startDate;\r\n        string endDate;\r\n    }\r\n}\r\n\r\n\r\n\r\n\r\n\r\n\r\n\r\n\r\n\r\n",
  "sourcePath": "D:\\pulpit\\KUBA\\praca magisterska\\Ethereum\\app\\contracts\\System.sol",
  "compiler": {
    "name": "solc",
    "version": "0.4.18+commit.9cf6e910.Emscripten.clang"
  },
  "schemaVersion": "1.0.1",
  "updatedAt": "2019-12-23T21:29:38.350Z"
}